:020000040800F2
:1000000038040020A1010008630400085B04000814
:100010005F040008FF010008070A00080000000054
:1000200000000000000000000000000009060008B9
:100030002103000800000000DD040008F9060008A4
:10004000BB010008BB010008BB010008BB010008A0
:10005000BB010008BB010008BB010008BB01000890
:10006000BB010008BB010008BB010008BB01000880
:10007000BB010008BB010008BB010008BB01000870
:10008000BB010008BB010008BB010008BB01000860
:10009000BB010008BB010008BB010008BB01000850
:1000A000BB010008BB010008BB010008BB01000840
:1000B000BB010008BB010008BB010008BB01000830
:1000C000BB010008BB010008BB010008BB01000820
:1000D000BB01000881070008BB010008BB01000844
:1000E000BB010008BB010008BB010008BB01000800
:1000F000BB010008BB010008BB010008BB010008F0
:10010000BB010008BB010008BB010008BB010008DF
:10011000BB010008BB010008BB010008BB010008CF
:100120000502000841020008BB010008BB010008ED
:10013000BB010008BB010008BB010008BB010008AF
:10014000BB010008BB010008BB010008BB0100089F
:10015000BB010008BB010008BB010008BB0100088F
:10016000BB010008BB010008BB010008BB0100087F
:10017000BB010008BB010008BB010008BB0100086F
:10018000BB010008BB010008DFF810D000F01AF82E
:1001900000480047290A0008AFF300803804002017
:1001A0000648804706480047FEE7FEE7FEE7FEE711
:1001B000FEE7FEE7FEE7FEE7FEE7FEE701070008D1
:1001C00089010008064C074D06E0E06840F0010395
:1001D00094E8070098471034AC42F6D3FFF7D8FFF5
:1001E000380A0008580A000821B1826842F001026A
:1001F000826003E0826822F001028260704700BFE3
:10020000FEE7000010B50A490A4800F057F870B13F
:100210000749084800F02CF800210748FFF7E4FFE1
:100220000021044800F03EF801200449088010BD78
:100230002080001010640240002001400C000020CB
:1002400010B50849084800F039F850B100210648B7
:1002500000F028F80120054908800249024800F012
:1002600007F810BD00880010286402400E0000202E
:100270000246094B9A4201D2084801E0064810386C
:1002800001F000531BB1064B0B40C36002E0044B6E
:100290000B40836070470000106402400060024021
:1002A0007D0F7D0F21B1026842F00102026003E080
:1002B000026822F0010202607047000070B5024639
:1002C000002000240025124EB24201D2114B01E061
:1002D0000F4B103B104E0E4036B11E2606EAD124BD
:1002E000166806EA040502E0566906F0800501F08A
:1002F00000560EB15C6800E01C68084E344004EA09
:10030000010616B10DB1012000E0002070BD000013
:1003100010640240006002403C0F3C0F7D0F7D0FD7
:100320007047000030B513480068134AB0FBF2F183
:10033000481EB0F1807F00D31BE0481E4FF0E02242
:10034000506150170F22002807DA13071D0E0B4BC0
:1003500000F00F04241F1D5503E013071C0E084B6B
:100360001C5400BF00204FF0E02290610720106174
:1003700000BF30BD1000002040420F0018ED00E02B
:1003800000E400E0F0B50A4600210023002400BF8D
:100390003DE0012505FA01F3156805EA03049C42D6
:1003A00034D105684F000326BE40B543056015797A
:1003B0004E00B5400668354305601579012D02D021
:1003C0001579022D16D185684F000326BE40B5432E
:1003D000856055794E00B54086683543856045682F
:1003E00001268E40B5434560456896798E40B6B289
:1003F00035434560C5684F000326BE40B543C56020
:10040000D5794E00B540C6683543C560491C1029F2
:10041000BFD3F0BDF0B5002300244D07ED0E02FA66
:1004200005F3CE1000F1200555F826504E07F70EC3
:100430000F26BE40B543CF1000F1200646F82750E6
:10044000CE1000F1200555F8265045EA0304CE10E1
:1004500000F1200545F82640F0BD00BFFEE700BFD3
:10046000FEE7704770B5002100230F22C4781CB34B
:10047000174C246804F4E064C4F5E064C4F3072175
:10048000C1F10404E3B20A4144789C40E1B28478AB
:10049000144021430C07210E0E4C05786155047859
:1004A00004F01F050124AC4005786D11AD0005F185
:1004B000E025C5F8004109E0047804F01F05012497
:1004C000AC40054D0678761145F8264070BD000019
:1004D0000CED00E000E400E080E100E07047000087
:1004E00029B1064A12680243044B1A6004E0034A29
:1004F00012688243014B1A60704700003038024096
:1005000029B1064A12680243044B1A6004E0034A08
:1005100012688243014B1A60704700004438024061
:10052000F0B5002100220024022500260223324FCC
:100530003F6807F00C0121B1042905D0082937D103
:1005400005E02E4F076036E02D4F076033E02A4F5D
:100550003F1F3F68C7F38056274F3F1F3F6807F094
:100560003F036EB1264FB7FBF3F7DFF88CC0ACF159
:10057000040CDCF800C0CCF3881C07FB0CF40CE086
:100580001E4FB7FBF3F7DFF870C0ACF1040CDCF8DA
:1005900000C0CCF3881C07FB0CF4174F3F1F3F68CB
:1005A000C7F301477F1C7D00B4FBF5F7076002E04D
:1005B000124F076000BF00BF0F4F3F6807F0F00108
:1005C0000909104F7A5C0768D74047600A4F3F68B7
:1005D00007F4E051890A0B4F7A5C4768D74087607F
:1005E000054F3F6807F46041490B064F7A5C476846
:1005F000D740C760F0BD0000083802400024F40076
:1006000000127A0024000020704700000CB5002082
:10061000019000903448006840F48030324908600E
:1006200000BF3148006800F4003000900198401C81
:100630000190009818B90198B0F5A04FF1D12A485F
:10064000006800F4003010B10120009001E00020AB
:1006500000900098012846D123484030006840F0BF
:1006600080502149403108602048006840F44040F3
:100670001E4908601C48083000681B4908310860A2
:100680000846006840F4004008600846006840F4EE
:10069000A05008601648091F0860081F006840F055
:1006A0008070091F086000BF0F48006800F00070EC
:1006B0000028F9D040F205700E4908600A48083059
:1006C000006820F003000849083108600846006807
:1006D00040F00200086000BF03480830006800F0E6
:1006E0000C000828F8D10CBD003802400070004012
:1006F00008544007003C024010B500F035F810BD2A
:1007000010B51548006840F470001349086013489C
:10071000006840F001001149086000200F490831CD
:1007200008600E4800680E4908400C4908600D48F2
:10073000091D0860081F006820F48020091F086058
:10074000002006490C310860FFF760FF4FF00060A1
:1007500001498039086010BD88ED00E00038024092
:10076000FFFFF6FE103000240448006820B1034863
:100770000068401E0149086070470000000000202A
:1007800010B540F22551074800F07FF8012808D144
:10079000044800F033F9044908602021014800F0C2
:1007A00059F810BD001001400400002010B588B0B9
:1007B000044601210220FFF793FE01211020FFF7DC
:1007C0009FFE072206212148FFF724FE072211463B
:1007D0001E48FFF71FFEC020069002208DF81C0067
:1007E0008DF81D0000208DF81E0001208DF81F00DF
:1007F00006A91648FFF7C6FD25208DF80400012044
:100800008DF805008DF806008DF8070001A8FFF7A8
:1008100029FE02940020ADF80C00ADF80E00ADF8F2
:100820001000ADF814000C20ADF8120002A9084821
:1008300000F07AF8012240F22551054800F04FF807
:100840000121034800F015F808B010BD0004024073
:100850000010014010B50022002340F66A14A142A6
:1008600000D100BF0A1201249440A3B2DC430480EB
:1008700010BD21B1828942F40052828104E0828954
:100880004DF6FF731A408281704770B5024600240E
:1008900000230025002040F66A16B14200D100BFB7
:1008A000C1F3421501F01F03012606FA03F3012DDF
:1008B00002D19689334006E0022D02D1168A3340D8
:1008C00001E0968A33400C12012606FA04F41688D9
:1008D000344013B10CB1012000E0002070BDF0B530
:1008E0000346002400260025002040F66A17B9427E
:1008F00000D100BF1846C1F3421401F01F060127C2
:1009000007FA06F5012C01D10C3004E0022C01D1CC
:10091000103000E014301AB107682F43076002E07E
:100920000768AF430760F0BD2DE9FF4705460E4657
:100930000024A14600BFA046B08900B100BF2C8AA8
:1009400024F44054F08804432C82AC8941F20C60BA
:100950008443B08831890843718908430443AC81DA
:10096000AC8A24F44074B0890443AC826846FFF733
:10097000D7FD2048854202D01F48854202D1DDF8CC
:100980000C9001E0DDF80890A88900F4004040B127
:1009900009EBC90000EB091031684900B0FBF1F721
:1009A00007E009EBC90000EB091031688900B0FBD2
:1009B000F1F76420B7FBF0F004012009642101FB8A
:1009C0001078A88900F4004040B1322000EBC80044
:1009D000B0FBF1F000F00700044308E0322000EB28
:1009E00008106421B0FBF1F000F00F0004432C81EB
:1009F000BDE8FF87001001400014014001468888CF
:100A0000C0F30800704700BFFEE702E008C8121FED
:100A100008C1002AFAD170477047002001E001C1E7
:100A2000121F002AFBD17047FFF77CFC4FF4E13026
:100A3000FFF7BCFE00BFFEE7580A000800000020D8
:100A4000340000000A0A00088C0A00083400002064
:100A5000040400001A0A0008000000000000000062
:100A60000000000000000000007A030A00000000FF
:100A7000000000000102030406070809000000004E
:0C0A800001020304010203040607080938
:040000050800018965
:00000001FF
